:108000004D53503433304652323637352073746115
:108010007274656420617420393630302062617575
:10802000640D0A00444542554720393630302062FD
:068030006175640D0A00F9
:10803600314000380C43B012E8807D4C0D9304208B
:10804600A2B31C05FD273041A2B31C05FD27824DB6
:108056000E05F33F3CF0FF00A2B31C05FD27824C42
:108066000E05A2B31C05FD2730412183814C00007B
:108076002C41B15300000C930220215330410D14C2
:108086003D4032051D83FE230D16F23FF2D010004F
:108096000A02F2F0EFFF0C02F2D010000202F2D058
:1080A6001000040292D30005B2D080000005B2F0A1
:1080B600FFF70005B2F0FF7F0005B2F0FFBF000535
:1080C600B2F0FFDF0005B2F0FFEF0005F240060058
:1080D6000605C2430705B2409100080592C3000594
:1080E60030412A152182B240805ACC0192C3300118
:1080F600F2F0DDFF0A02F2F0DDFF0C02F2D0220000
:108106000402F2F0DDFF02023C40F401B01270807E
:108116005C4202027CF0DDFF6CD3C24C02027C4062
:108126009600F2E0220002020D143D4026001D8357
:10813600FE230D1603433C530C93F323F2F0DDFFAD
:108146000202F2F0FCFF0B02F2F0FCFF0D02F2F06D
:10815600FCFF0702F2D0030005025C4203027CF03A
:10816600FCFF5CD3C24C0302B24014018003B24050
:1081760010279203B24010008203034332D2034316
:10818600B01292803C400080B01240803A405A8043
:108196007C4055008A127C40AAFF8A123C4024800B
:1081A600B0124080B140A0860000914302002C41ED
:1081B6001D410200084C3853094D396381480000BF
:1081C600814902000CDD0C93E1270343F03F0C15B7
:1081D600D2B3030209245C4203027CF0FCFF6CD399
:1081E600C24C03020C1700135C4203027CF0FCFF36
:0481F6005CD3F63F21
:02FFF800D481B2
:02FFFE0036804B
:040000030000803643
:00000001FF
